{
  "_format": "hh-sol-artifact-1",
  "contractName": "Memecoin",
  "sourceName": "contracts/CorePumpToken.sol",
  "abi": [
    {
      "inputs": [
        {
          "internalType": "uint256",
          "name": "initialSupply",
          "type": "uint256"
        },
        {
          "internalType": "string",
          "name": "_name",
          "type": "string"
        },
        {
          "internalType": "string",
          "name": "_symbol",
          "type": "string"
        },
        {
          "internalType": "address",
          "name": "_midDeployer",
          "type": "address"
        },
        {
          "internalType": "address",
          "name": "_deployer",
          "type": "address"
        }
      ],
      "stateMutability": "nonpayable",
      "type": "constructor"
    },
    {
      "anonymous": false,
      "inputs": [
        {
          "indexed": true,
          "internalType": "address",
          "name": "owner",
          "type": "address"
        },
        {
          "indexed": true,
          "internalType": "address",
          "name": "spender",
          "type": "address"
        },
        {
          "indexed": false,
          "internalType": "uint256",
          "name": "value",
          "type": "uint256"
        }
      ],
      "name": "Approval",
      "type": "event"
    },
    {
      "anonymous": false,
      "inputs": [
        {
          "indexed": true,
          "internalType": "address",
          "name": "previousOwner",
          "type": "address"
        }
      ],
      "name": "OwnershipRenounced",
      "type": "event"
    },
    {
      "anonymous": false,
      "inputs": [
        {
          "indexed": true,
          "internalType": "address",
          "name": "previousOwner",
          "type": "address"
        },
        {
          "indexed": true,
          "internalType": "address",
          "name": "newOwner",
          "type": "address"
        }
      ],
      "name": "OwnershipTransferred",
      "type": "event"
    },
    {
      "anonymous": false,
      "inputs": [
        {
          "indexed": true,
          "internalType": "address",
          "name": "from",
          "type": "address"
        },
        {
          "indexed": true,
          "internalType": "address",
          "name": "to",
          "type": "address"
        },
        {
          "indexed": false,
          "internalType": "uint256",
          "name": "value",
          "type": "uint256"
        }
      ],
      "name": "Transfer",
      "type": "event"
    },
    {
      "inputs": [
        {
          "internalType": "uint256",
          "name": "amount",
          "type": "uint256"
        }
      ],
      "name": "Burn",
      "outputs": [
        {
          "internalType": "bool",
          "name": "",
          "type": "bool"
        }
      ],
      "stateMutability": "nonpayable",
      "type": "function"
    },
    {
      "inputs": [
        {
          "internalType": "address",
          "name": "owner",
          "type": "address"
        },
        {
          "internalType": "address",
          "name": "spender",
          "type": "address"
        }
      ],
      "name": "allowance",
      "outputs": [
        {
          "internalType": "uint256",
          "name": "",
          "type": "uint256"
        }
      ],
      "stateMutability": "view",
      "type": "function"
    },
    {
      "inputs": [
        {
          "internalType": "address",
          "name": "spender",
          "type": "address"
        },
        {
          "internalType": "uint256",
          "name": "amount",
          "type": "uint256"
        }
      ],
      "name": "approve",
      "outputs": [
        {
          "internalType": "bool",
          "name": "",
          "type": "bool"
        }
      ],
      "stateMutability": "nonpayable",
      "type": "function"
    },
    {
      "inputs": [
        {
          "internalType": "address",
          "name": "account",
          "type": "address"
        }
      ],
      "name": "balanceOf",
      "outputs": [
        {
          "internalType": "uint256",
          "name": "",
          "type": "uint256"
        }
      ],
      "stateMutability": "view",
      "type": "function"
    },
    {
      "inputs": [],
      "name": "decimals",
      "outputs": [
        {
          "internalType": "uint8",
          "name": "",
          "type": "uint8"
        }
      ],
      "stateMutability": "view",
      "type": "function"
    },
    {
      "inputs": [
        {
          "internalType": "address",
          "name": "spender",
          "type": "address"
        },
        {
          "internalType": "uint256",
          "name": "subtractedValue",
          "type": "uint256"
        }
      ],
      "name": "decreaseAllowance",
      "outputs": [
        {
          "internalType": "bool",
          "name": "",
          "type": "bool"
        }
      ],
      "stateMutability": "nonpayable",
      "type": "function"
    },
    {
      "inputs": [],
      "name": "deployerFrom",
      "outputs": [
        {
          "internalType": "address",
          "name": "",
          "type": "address"
        }
      ],
      "stateMutability": "view",
      "type": "function"
    },
    {
      "inputs": [],
      "name": "dexInitiated",
      "outputs": [
        {
          "internalType": "bool",
          "name": "",
          "type": "bool"
        }
      ],
      "stateMutability": "view",
      "type": "function"
    },
    {
      "inputs": [
        {
          "internalType": "address",
          "name": "spender",
          "type": "address"
        },
        {
          "internalType": "uint256",
          "name": "addedValue",
          "type": "uint256"
        }
      ],
      "name": "increaseAllowance",
      "outputs": [
        {
          "internalType": "bool",
          "name": "",
          "type": "bool"
        }
      ],
      "stateMutability": "nonpayable",
      "type": "function"
    },
    {
      "inputs": [],
      "name": "initialFrom",
      "outputs": [
        {
          "internalType": "address",
          "name": "",
          "type": "address"
        }
      ],
      "stateMutability": "view",
      "type": "function"
    },
    {
      "inputs": [],
      "name": "initiateDex",
      "outputs": [],
      "stateMutability": "nonpayable",
      "type": "function"
    },
    {
      "inputs": [],
      "name": "name",
      "outputs": [
        {
          "internalType": "string",
          "name": "",
          "type": "string"
        }
      ],
      "stateMutability": "view",
      "type": "function"
    },
    {
      "inputs": [],
      "name": "owner",
      "outputs": [
        {
          "internalType": "address",
          "name": "",
          "type": "address"
        }
      ],
      "stateMutability": "view",
      "type": "function"
    },
    {
      "inputs": [],
      "name": "renounceOwnership",
      "outputs": [],
      "stateMutability": "nonpayable",
      "type": "function"
    },
    {
      "inputs": [
        {
          "internalType": "address",
          "name": "_funContract",
          "type": "address"
        }
      ],
      "name": "setFunContract",
      "outputs": [],
      "stateMutability": "nonpayable",
      "type": "function"
    },
    {
      "inputs": [],
      "name": "symbol",
      "outputs": [
        {
          "internalType": "string",
          "name": "",
          "type": "string"
        }
      ],
      "stateMutability": "view",
      "type": "function"
    },
    {
      "inputs": [],
      "name": "totalSupply",
      "outputs": [
        {
          "internalType": "uint256",
          "name": "",
          "type": "uint256"
        }
      ],
      "stateMutability": "view",
      "type": "function"
    },
    {
      "inputs": [
        {
          "internalType": "address",
          "name": "recipient",
          "type": "address"
        },
        {
          "internalType": "uint256",
          "name": "amount",
          "type": "uint256"
        }
      ],
      "name": "transfer",
      "outputs": [
        {
          "internalType": "bool",
          "name": "",
          "type": "bool"
        }
      ],
      "stateMutability": "nonpayable",
      "type": "function"
    },
    {
      "inputs": [
        {
          "internalType": "address",
          "name": "sender",
          "type": "address"
        },
        {
          "internalType": "address",
          "name": "recipient",
          "type": "address"
        },
        {
          "internalType": "uint256",
          "name": "amount",
          "type": "uint256"
        }
      ],
      "name": "transferFrom",
      "outputs": [
        {
          "internalType": "bool",
          "name": "",
          "type": "bool"
        }
      ],
      "stateMutability": "nonpayable",
      "type": "function"
    },
    {
      "inputs": [
        {
          "internalType": "address",
          "name": "_newOwner",
          "type": "address"
        }
      ],
      "name": "transferOwnership",
      "outputs": [],
      "stateMutability": "nonpayable",
      "type": "function"
    },
    {
      "inputs": [],
      "name": "voter",
      "outputs": [
        {
          "internalType": "address",
          "name": "",
          "type": "address"
        }
      ],
      "stateMutability": "view",
      "type": "function"
    }
  ],
  "bytecode": "0x60806040523480156200001157600080fd5b50604051620028ad380380620028ad8339818101604052810190620000379190620004fe565b336000806101000a81548173ffffffffffffffffffffffffffffffffffffffff021916908373ffffffffffffffffffffffffffffffffffffffff1602179055506200008982866200017a60201b60201c565b81600460006101000a81548173ffffffffffffffffffffffffffffffffffffffff021916908373ffffffffffffffffffffffffffffffffffffffff16021790555080600560006101000a81548173ffffffffffffffffffffffffffffffffffffffff021916908373ffffffffffffffffffffffffffffffffffffffff16021790555083600290816200011c919062000805565b5082600390816200012e919062000805565b50816000806101000a81548173ffffffffffffffffffffffffffffffffffffffff021916908373ffffffffffffffffffffffffffffffffffffffff160217905550505050505062000a07565b600073ffffffffffffffffffffffffffffffffffffffff168273ffffffffffffffffffffffffffffffffffffffff1603620001ec576040517f08c379a0000000000000000000000000000000000000000000000000000000008152600401620001e3906200094d565b60405180910390fd5b80600660008282546200020091906200099e565b9250508190555080600760008473ffffffffffffffffffffffffffffffffffffffff1673ffffffffffffffffffffffffffffffffffffffff16815260200190815260200160002060008282546200025891906200099e565b925050819055508173ffffffffffffffffffffffffffffffffffffffff16600073ffffffffffffffffffffffffffffffffffffffff167fddf252ad1be2c89b69c2b068fc378daa952ba7f163c4a11628f55a4df523b3ef83604051620002bf9190620009ea565b60405180910390a35050565b6000604051905090565b600080fd5b600080fd5b6000819050919050565b620002f481620002df565b81146200030057600080fd5b50565b6000815190506200031481620002e9565b92915050565b600080fd5b600080fd5b6000601f19601f8301169050919050565b7f4e487b7100000000000000000000000000000000000000000000000000000000600052604160045260246000fd5b6200036f8262000324565b810181811067ffffffffffffffff8211171562000391576200039062000335565b5b80604052505050565b6000620003a6620002cb565b9050620003b4828262000364565b919050565b600067ffffffffffffffff821115620003d757620003d662000335565b5b620003e28262000324565b9050602081019050919050565b60005b838110156200040f578082015181840152602081019050620003f2565b60008484015250505050565b6000620004326200042c84620003b9565b6200039a565b9050828152602081018484840111156200045157620004506200031f565b5b6200045e848285620003ef565b509392505050565b600082601f8301126200047e576200047d6200031a565b5b8151620004908482602086016200041b565b91505092915050565b600073ffffffffffffffffffffffffffffffffffffffff82169050919050565b6000620004c68262000499565b9050919050565b620004d881620004b9565b8114620004e457600080fd5b50565b600081519050620004f881620004cd565b92915050565b600080600080600060a086880312156200051d576200051c620002d5565b5b60006200052d8882890162000303565b955050602086015167ffffffffffffffff811115620005515762000550620002da565b5b6200055f8882890162000466565b945050604086015167ffffffffffffffff811115620005835762000582620002da565b5b620005918882890162000466565b9350506060620005a488828901620004e7565b9250506080620005b788828901620004e7565b9150509295509295909350565b600081519050919050565b7f4e487b7100000000000000000000000000000000000000000000000000000000600052602260045260246000fd5b600060028204905060018216806200061757607f821691505b6020821081036200062d576200062c620005cf565b5b50919050565b60008190508160005260206000209050919050565b60006020601f8301049050919050565b600082821b905092915050565b600060088302620006977fffffffffffffffffffffffffffffffffffffffffffffffffffffffffffffffff8262000658565b620006a3868362000658565b95508019841693508086168417925050509392505050565b6000819050919050565b6000620006e6620006e0620006da84620002df565b620006bb565b620002df565b9050919050565b6000819050919050565b6200070283620006c5565b6200071a6200071182620006ed565b84845462000665565b825550505050565b600090565b6200073162000722565b6200073e818484620006f7565b505050565b5b8181101562000766576200075a60008262000727565b60018101905062000744565b5050565b601f821115620007b5576200077f8162000633565b6200078a8462000648565b810160208510156200079a578190505b620007b2620007a98562000648565b83018262000743565b50505b505050565b600082821c905092915050565b6000620007da60001984600802620007ba565b1980831691505092915050565b6000620007f58383620007c7565b9150826002028217905092915050565b6200081082620005c4565b67ffffffffffffffff8111156200082c576200082b62000335565b5b620008388254620005fe565b620008458282856200076a565b600060209050601f8311600181146200087d576000841562000868578287015190505b620008748582620007e7565b865550620008e4565b601f1984166200088d8662000633565b60005b82811015620008b75784890151825560018201915060208501945060208101905062000890565b86831015620008d75784890151620008d3601f891682620007c7565b8355505b6001600288020188555050505b505050505050565b600082825260208201905092915050565b7f45524332303a206d696e7420746f20746865207a65726f206164647265737300600082015250565b600062000935601f83620008ec565b91506200094282620008fd565b602082019050919050565b60006020820190508181036000830152620009688162000926565b9050919050565b7f4e487b7100000000000000000000000000000000000000000000000000000000600052601160045260246000fd5b6000620009ab82620002df565b9150620009b883620002df565b9250828201905080821115620009d357620009d26200096f565b5b92915050565b620009e481620002df565b82525050565b600060208201905062000a016000830184620009d9565b92915050565b611e968062000a176000396000f3fe608060405234801561001057600080fd5b50600436106101375760003560e01c806383074246116100b8578063a9059cbb1161007c578063a9059cbb14610342578063b90306ad14610372578063d5166994146103a2578063d9c09573146103ac578063dd62ed3e146103ca578063f2fde38b146103fa57610137565b8063830742461461029c5780638da5cb5b146102ba57806395d89b41146102d8578063a457c2d7146102f6578063a50899831461032657610137565b806339509351116100ff57806339509351146101f657806346c96aac146102265780634d86017b1461024457806370a0823114610262578063715018a61461029257610137565b806306fdde031461013c578063095ea7b31461015a57806318160ddd1461018a57806323b872dd146101a8578063313ce567146101d8575b600080fd5b610144610416565b6040516101519190611734565b60405180910390f35b610174600480360381019061016f91906117ef565b6104a4565b604051610181919061184a565b60405180910390f35b6101926104bb565b60405161019f9190611874565b60405180910390f35b6101c260048036038101906101bd919061188f565b6104c5565b6040516101cf919061184a565b60405180910390f35b6101e06105b7565b6040516101ed91906118fe565b60405180910390f35b610210600480360381019061020b91906117ef565b6105bc565b60405161021d919061184a565b60405180910390f35b61022e6107e9565b60405161023b9190611928565b60405180910390f35b61024c61080f565b6040516102599190611928565b60405180910390f35b61027c60048036038101906102779190611943565b610835565b6040516102899190611874565b60405180910390f35b61029a61087e565b005b6102a461097c565b6040516102b1919061184a565b60405180910390f35b6102c261098f565b6040516102cf9190611928565b60405180910390f35b6102e06109b3565b6040516102ed9190611734565b60405180910390f35b610310600480360381019061030b91906117ef565b610a41565b60405161031d919061184a565b60405180910390f35b610340600480360381019061033b9190611943565b610c6e565b005b61035c600480360381019061035791906117ef565b610d0a565b604051610369919061184a565b60405180910390f35b61038c60048036038101906103879190611970565b610d69565b604051610399919061184a565b60405180910390f35b6103aa610d7e565b005b6103b4610e2b565b6040516103c19190611928565b60405180910390f35b6103e460048036038101906103df919061199d565b610e51565b6040516103f19190611874565b60405180910390f35b610414600480360381019061040f9190611943565b610ed8565b005b6002805461042390611a0c565b80601f016020809104026020016040519081016040528092919081815260200182805461044f90611a0c565b801561049c5780601f106104715761010080835404028352916020019161049c565b820191906000526020600020905b81548152906001019060200180831161047f57829003601f168201915b505050505081565b60006104b1338484610f3c565b6001905092915050565b6000600654905090565b60006104d033611105565b61050f576040517f08c379a000000000000000000000000000000000000000000000000000000000815260040161050690611a89565b60405180910390fd5b61051a8484846111e6565b6105ac843384600860008973ffffffffffffffffffffffffffffffffffffffff1673ffffffffffffffffffffffffffffffffffffffff16815260200190815260200160002060003373ffffffffffffffffffffffffffffffffffffffff1673ffffffffffffffffffffffffffffffffffffffff168152602001908152602001600020546105a79190611ad8565b610f3c565b600190509392505050565b601281565b60008073ffffffffffffffffffffffffffffffffffffffff168373ffffffffffffffffffffffffffffffffffffffff16036105f657600080fd5b81600860003373ffffffffffffffffffffffffffffffffffffffff1673ffffffffffffffffffffffffffffffffffffffff16815260200190815260200160002060008573ffffffffffffffffffffffffffffffffffffffff1673ffffffffffffffffffffffffffffffffffffffff1681526020019081526020016000205461067e9190611b0c565b600860003373ffffffffffffffffffffffffffffffffffffffff1673ffffffffffffffffffffffffffffffffffffffff16815260200190815260200160002060008573ffffffffffffffffffffffffffffffffffffffff1673ffffffffffffffffffffffffffffffffffffffff168152602001908152602001600020819055508273ffffffffffffffffffffffffffffffffffffffff163373ffffffffffffffffffffffffffffffffffffffff167f8c5be1e5ebec7d5bd14f71427d1e84f3dd0314c0f7b2291e5b200ac8c7c3b925600860003373ffffffffffffffffffffffffffffffffffffffff1673ffffffffffffffffffffffffffffffffffffffff16815260200190815260200160002060008773ffffffffffffffffffffffffffffffffffffffff1673ffffffffffffffffffffffffffffffffffffffff168152602001908152602001600020546040516107d79190611874565b60405180910390a36001905092915050565b600160009054906101000a900473ffffffffffffffffffffffffffffffffffffffff1681565b600460009054906101000a900473ffffffffffffffffffffffffffffffffffffffff1681565b6000600760008373ffffffffffffffffffffffffffffffffffffffff1673ffffffffffffffffffffffffffffffffffffffff168152602001908152602001600020549050919050565b60008054906101000a900473ffffffffffffffffffffffffffffffffffffffff1673ffffffffffffffffffffffffffffffffffffffff163373ffffffffffffffffffffffffffffffffffffffff16146108d657600080fd5b60008054906101000a900473ffffffffffffffffffffffffffffffffffffffff1673ffffffffffffffffffffffffffffffffffffffff167ff8df31144d9c2f0f6b59d69b8b98abd5459d07f2742c4df920b25aae33c6482060405160405180910390a260008060006101000a81548173ffffffffffffffffffffffffffffffffffffffff021916908373ffffffffffffffffffffffffffffffffffffffff160217905550565b600560149054906101000a900460ff1681565b60008054906101000a900473ffffffffffffffffffffffffffffffffffffffff1681565b600380546109c090611a0c565b80601f01602080910402602001604051908101604052809291908181526020018280546109ec90611a0c565b8015610a395780601f10610a0e57610100808354040283529160200191610a39565b820191906000526020600020905b815481529060010190602001808311610a1c57829003601f168201915b505050505081565b60008073ffffffffffffffffffffffffffffffffffffffff168373ffffffffffffffffffffffffffffffffffffffff1603610a7b57600080fd5b81600860003373ffffffffffffffffffffffffffffffffffffffff1673ffffffffffffffffffffffffffffffffffffffff16815260200190815260200160002060008573ffffffffffffffffffffffffffffffffffffffff1673ffffffffffffffffffffffffffffffffffffffff16815260200190815260200160002054610b039190611ad8565b600860003373ffffffffffffffffffffffffffffffffffffffff1673ffffffffffffffffffffffffffffffffffffffff16815260200190815260200160002060008573ffffffffffffffffffffffffffffffffffffffff1673ffffffffffffffffffffffffffffffffffffffff168152602001908152602001600020819055508273ffffffffffffffffffffffffffffffffffffffff163373ffffffffffffffffffffffffffffffffffffffff167f8c5be1e5ebec7d5bd14f71427d1e84f3dd0314c0f7b2291e5b200ac8c7c3b925600860003373ffffffffffffffffffffffffffffffffffffffff1673ffffffffffffffffffffffffffffffffffffffff16815260200190815260200160002060008773ffffffffffffffffffffffffffffffffffffffff1673ffffffffffffffffffffffffffffffffffffffff16815260200190815260200160002054604051610c5c9190611874565b60405180910390a36001905092915050565b60008054906101000a900473ffffffffffffffffffffffffffffffffffffffff1673ffffffffffffffffffffffffffffffffffffffff163373ffffffffffffffffffffffffffffffffffffffff1614610cc657600080fd5b80600460006101000a81548173ffffffffffffffffffffffffffffffffffffffff021916908373ffffffffffffffffffffffffffffffffffffffff16021790555050565b6000610d1533611105565b610d54576040517f08c379a0000000000000000000000000000000000000000000000000000000008152600401610d4b90611a89565b60405180910390fd5b610d5f3384846111e6565b6001905092915050565b6000610d75338361141d565b60019050919050565b600460009054906101000a900473ffffffffffffffffffffffffffffffffffffffff1673ffffffffffffffffffffffffffffffffffffffff163373ffffffffffffffffffffffffffffffffffffffff1614610e0e576040517f08c379a0000000000000000000000000000000000000000000000000000000008152600401610e0590611b8c565b60405180910390fd5b6001600560146101000a81548160ff021916908315150217905550565b600560009054906101000a900473ffffffffffffffffffffffffffffffffffffffff1681565b6000600860008473ffffffffffffffffffffffffffffffffffffffff1673ffffffffffffffffffffffffffffffffffffffff16815260200190815260200160002060008373ffffffffffffffffffffffffffffffffffffffff1673ffffffffffffffffffffffffffffffffffffffff16815260200190815260200160002054905092915050565b60008054906101000a900473ffffffffffffffffffffffffffffffffffffffff1673ffffffffffffffffffffffffffffffffffffffff163373ffffffffffffffffffffffffffffffffffffffff1614610f3057600080fd5b610f39816115ae565b50565b600073ffffffffffffffffffffffffffffffffffffffff168373ffffffffffffffffffffffffffffffffffffffff1603610fab576040517f08c379a0000000000000000000000000000000000000000000000000000000008152600401610fa290611c1e565b60405180910390fd5b600073ffffffffffffffffffffffffffffffffffffffff168273ffffffffffffffffffffffffffffffffffffffff160361101a576040517f08c379a000000000000000000000000000000000000000000000000000000000815260040161101190611cb0565b60405180910390fd5b80600860008573ffffffffffffffffffffffffffffffffffffffff1673ffffffffffffffffffffffffffffffffffffffff16815260200190815260200160002060008473ffffffffffffffffffffffffffffffffffffffff1673ffffffffffffffffffffffffffffffffffffffff168152602001908152602001600020819055508173ffffffffffffffffffffffffffffffffffffffff168373ffffffffffffffffffffffffffffffffffffffff167f8c5be1e5ebec7d5bd14f71427d1e84f3dd0314c0f7b2291e5b200ac8c7c3b925836040516110f89190611874565b60405180910390a3505050565b6000600560149054906101000a900460ff161561112557600190506111e1565b600460009054906101000a900473ffffffffffffffffffffffffffffffffffffffff1673ffffffffffffffffffffffffffffffffffffffff168273ffffffffffffffffffffffffffffffffffffffff1614806111ce5750600560009054906101000a900473ffffffffffffffffffffffffffffffffffffffff1673ffffffffffffffffffffffffffffffffffffffff168273ffffffffffffffffffffffffffffffffffffffff16145b156111dc57600190506111e1565b600090505b919050565b600073ffffffffffffffffffffffffffffffffffffffff168373ffffffffffffffffffffffffffffffffffffffff1603611255576040517f08c379a000000000000000000000000000000000000000000000000000000000815260040161124c90611d42565b60405180910390fd5b600073ffffffffffffffffffffffffffffffffffffffff168273ffffffffffffffffffffffffffffffffffffffff16036112c4576040517f08c379a00000000000000000000000000000000000000000000000000000000081526004016112bb90611dd4565b60405180910390fd5b60008111611307576040517f08c379a00000000000000000000000000000000000000000000000000000000081526004016112fe90611e40565b60405180910390fd5b80600760008573ffffffffffffffffffffffffffffffffffffffff1673ffffffffffffffffffffffffffffffffffffffff16815260200190815260200160002060008282546113569190611ad8565b9250508190555080600760008473ffffffffffffffffffffffffffffffffffffffff1673ffffffffffffffffffffffffffffffffffffffff16815260200190815260200160002060008282546113ac9190611b0c565b925050819055508173ffffffffffffffffffffffffffffffffffffffff168373ffffffffffffffffffffffffffffffffffffffff167fddf252ad1be2c89b69c2b068fc378daa952ba7f163c4a11628f55a4df523b3ef836040516114109190611874565b60405180910390a3505050565b600073ffffffffffffffffffffffffffffffffffffffff168273ffffffffffffffffffffffffffffffffffffffff160361145657600080fd5b600760008373ffffffffffffffffffffffffffffffffffffffff1673ffffffffffffffffffffffffffffffffffffffff168152602001908152602001600020548111156114a257600080fd5b806006546114b09190611ad8565b60068190555080600760008473ffffffffffffffffffffffffffffffffffffffff1673ffffffffffffffffffffffffffffffffffffffff168152602001908152602001600020546115019190611ad8565b600760008473ffffffffffffffffffffffffffffffffffffffff1673ffffffffffffffffffffffffffffffffffffffff16815260200190815260200160002081905550600073ffffffffffffffffffffffffffffffffffffffff168273ffffffffffffffffffffffffffffffffffffffff167fddf252ad1be2c89b69c2b068fc378daa952ba7f163c4a11628f55a4df523b3ef836040516115a29190611874565b60405180910390a35050565b600073ffffffffffffffffffffffffffffffffffffffff168173ffffffffffffffffffffffffffffffffffffffff16036115e757600080fd5b8073ffffffffffffffffffffffffffffffffffffffff1660008054906101000a900473ffffffffffffffffffffffffffffffffffffffff1673ffffffffffffffffffffffffffffffffffffffff167f8be0079c531659141344cd1fd0a4f28419497f9722a3daafe3b4186f6b6457e060405160405180910390a3806000806101000a81548173ffffffffffffffffffffffffffffffffffffffff021916908373ffffffffffffffffffffffffffffffffffffffff16021790555050565b600081519050919050565b600082825260208201905092915050565b60005b838110156116de5780820151818401526020810190506116c3565b60008484015250505050565b6000601f19601f8301169050919050565b6000611706826116a4565b61171081856116af565b93506117208185602086016116c0565b611729816116ea565b840191505092915050565b6000602082019050818103600083015261174e81846116fb565b905092915050565b600080fd5b600073ffffffffffffffffffffffffffffffffffffffff82169050919050565b60006117868261175b565b9050919050565b6117968161177b565b81146117a157600080fd5b50565b6000813590506117b38161178d565b92915050565b6000819050919050565b6117cc816117b9565b81146117d757600080fd5b50565b6000813590506117e9816117c3565b92915050565b6000806040838503121561180657611805611756565b5b6000611814858286016117a4565b9250506020611825858286016117da565b9150509250929050565b60008115159050919050565b6118448161182f565b82525050565b600060208201905061185f600083018461183b565b92915050565b61186e816117b9565b82525050565b60006020820190506118896000830184611865565b92915050565b6000806000606084860312156118a8576118a7611756565b5b60006118b6868287016117a4565b93505060206118c7868287016117a4565b92505060406118d8868287016117da565b9150509250925092565b600060ff82169050919050565b6118f8816118e2565b82525050565b600060208201905061191360008301846118ef565b92915050565b6119228161177b565b82525050565b600060208201905061193d6000830184611919565b92915050565b60006020828403121561195957611958611756565b5b6000611967848285016117a4565b91505092915050565b60006020828403121561198657611985611756565b5b6000611994848285016117da565b91505092915050565b600080604083850312156119b4576119b3611756565b5b60006119c2858286016117a4565b92505060206119d3858286016117a4565b9150509250929050565b7f4e487b7100000000000000000000000000000000000000000000000000000000600052602260045260246000fd5b60006002820490506001821680611a2457607f821691505b602082108103611a3757611a366119dd565b5b50919050565b7f6e6f7420646578206c6973746564000000000000000000000000000000000000600082015250565b6000611a73600e836116af565b9150611a7e82611a3d565b602082019050919050565b60006020820190508181036000830152611aa281611a66565b9050919050565b7f4e487b7100000000000000000000000000000000000000000000000000000000600052601160045260246000fd5b6000611ae3826117b9565b9150611aee836117b9565b9250828203905081811115611b0657611b05611aa9565b5b92915050565b6000611b17826117b9565b9150611b22836117b9565b9250828201905080821115611b3a57611b39611aa9565b5b92915050565b7f6f6e6c792066756e20616c6c6f77656400000000000000000000000000000000600082015250565b6000611b766010836116af565b9150611b8182611b40565b602082019050919050565b60006020820190508181036000830152611ba581611b69565b9050919050565b7f45524332303a20617070726f76652066726f6d20746865207a65726f2061646460008201527f7265737300000000000000000000000000000000000000000000000000000000602082015250565b6000611c086024836116af565b9150611c1382611bac565b604082019050919050565b60006020820190508181036000830152611c3781611bfb565b9050919050565b7f45524332303a20617070726f766520746f20746865207a65726f20616464726560008201527f7373000000000000000000000000000000000000000000000000000000000000602082015250565b6000611c9a6022836116af565b9150611ca582611c3e565b604082019050919050565b60006020820190508181036000830152611cc981611c8d565b9050919050565b7f45524332303a207472616e736665722066726f6d20746865207a65726f20616460008201527f6472657373000000000000000000000000000000000000000000000000000000602082015250565b6000611d2c6025836116af565b9150611d3782611cd0565b604082019050919050565b60006020820190508181036000830152611d5b81611d1f565b9050919050565b7f45524332303a207472616e7366657220746f20746865207a65726f206164647260008201527f6573730000000000000000000000000000000000000000000000000000000000602082015250565b6000611dbe6023836116af565b9150611dc982611d62565b604082019050919050565b60006020820190508181036000830152611ded81611db1565b9050919050565b7f696e76616c6964207472616e7366657220616d6f756e74000000000000000000600082015250565b6000611e2a6017836116af565b9150611e3582611df4565b602082019050919050565b60006020820190508181036000830152611e5981611e1d565b905091905056fea2646970667358221220ff2e17b488ca7f60c2413bdb72de323188fcb45c868647f5d05197c726af71cc64736f6c63430008180033",
  "linkReferences": {},
  "deployedLinkReferences": {}
}