{
  "_format": "hh-sol-artifact-1",
  "contractName": "BasicToken",
  "sourceName": "contracts/BasicToken.sol",
  "abi": [
    {
      "inputs": [
        {
          "internalType": "uint256",
          "name": "initialSupply",
          "type": "uint256"
        },
        {
          "internalType": "string",
          "name": "_name",
          "type": "string"
        },
        {
          "internalType": "string",
          "name": "_symbol",
          "type": "string"
        }
      ],
      "stateMutability": "nonpayable",
      "type": "constructor"
    },
    {
      "anonymous": false,
      "inputs": [
        {
          "indexed": true,
          "internalType": "address",
          "name": "owner",
          "type": "address"
        },
        {
          "indexed": true,
          "internalType": "address",
          "name": "spender",
          "type": "address"
        },
        {
          "indexed": false,
          "internalType": "uint256",
          "name": "value",
          "type": "uint256"
        }
      ],
      "name": "Approval",
      "type": "event"
    },
    {
      "anonymous": false,
      "inputs": [
        {
          "indexed": true,
          "internalType": "address",
          "name": "previousOwner",
          "type": "address"
        },
        {
          "indexed": true,
          "internalType": "address",
          "name": "newOwner",
          "type": "address"
        }
      ],
      "name": "OwnershipTransferred",
      "type": "event"
    },
    {
      "anonymous": false,
      "inputs": [
        {
          "indexed": true,
          "internalType": "address",
          "name": "from",
          "type": "address"
        },
        {
          "indexed": true,
          "internalType": "address",
          "name": "to",
          "type": "address"
        },
        {
          "indexed": false,
          "internalType": "uint256",
          "name": "value",
          "type": "uint256"
        }
      ],
      "name": "Transfer",
      "type": "event"
    },
    {
      "inputs": [
        {
          "internalType": "address",
          "name": "owner",
          "type": "address"
        },
        {
          "internalType": "address",
          "name": "spender",
          "type": "address"
        }
      ],
      "name": "allowance",
      "outputs": [
        {
          "internalType": "uint256",
          "name": "",
          "type": "uint256"
        }
      ],
      "stateMutability": "view",
      "type": "function"
    },
    {
      "inputs": [
        {
          "internalType": "address",
          "name": "spender",
          "type": "address"
        },
        {
          "internalType": "uint256",
          "name": "amount",
          "type": "uint256"
        }
      ],
      "name": "approve",
      "outputs": [
        {
          "internalType": "bool",
          "name": "",
          "type": "bool"
        }
      ],
      "stateMutability": "nonpayable",
      "type": "function"
    },
    {
      "inputs": [
        {
          "internalType": "address",
          "name": "account",
          "type": "address"
        }
      ],
      "name": "balanceOf",
      "outputs": [
        {
          "internalType": "uint256",
          "name": "",
          "type": "uint256"
        }
      ],
      "stateMutability": "view",
      "type": "function"
    },
    {
      "inputs": [
        {
          "internalType": "uint256",
          "name": "amount",
          "type": "uint256"
        }
      ],
      "name": "burn",
      "outputs": [
        {
          "internalType": "bool",
          "name": "",
          "type": "bool"
        }
      ],
      "stateMutability": "nonpayable",
      "type": "function"
    },
    {
      "inputs": [],
      "name": "decimals",
      "outputs": [
        {
          "internalType": "uint8",
          "name": "",
          "type": "uint8"
        }
      ],
      "stateMutability": "view",
      "type": "function"
    },
    {
      "inputs": [
        {
          "internalType": "address",
          "name": "spender",
          "type": "address"
        },
        {
          "internalType": "uint256",
          "name": "subtractedValue",
          "type": "uint256"
        }
      ],
      "name": "decreaseAllowance",
      "outputs": [
        {
          "internalType": "bool",
          "name": "",
          "type": "bool"
        }
      ],
      "stateMutability": "nonpayable",
      "type": "function"
    },
    {
      "inputs": [
        {
          "internalType": "address",
          "name": "spender",
          "type": "address"
        },
        {
          "internalType": "uint256",
          "name": "addedValue",
          "type": "uint256"
        }
      ],
      "name": "increaseAllowance",
      "outputs": [
        {
          "internalType": "bool",
          "name": "",
          "type": "bool"
        }
      ],
      "stateMutability": "nonpayable",
      "type": "function"
    },
    {
      "inputs": [],
      "name": "name",
      "outputs": [
        {
          "internalType": "string",
          "name": "",
          "type": "string"
        }
      ],
      "stateMutability": "view",
      "type": "function"
    },
    {
      "inputs": [],
      "name": "owner",
      "outputs": [
        {
          "internalType": "address",
          "name": "",
          "type": "address"
        }
      ],
      "stateMutability": "view",
      "type": "function"
    },
    {
      "inputs": [],
      "name": "symbol",
      "outputs": [
        {
          "internalType": "string",
          "name": "",
          "type": "string"
        }
      ],
      "stateMutability": "view",
      "type": "function"
    },
    {
      "inputs": [],
      "name": "totalSupply",
      "outputs": [
        {
          "internalType": "uint256",
          "name": "",
          "type": "uint256"
        }
      ],
      "stateMutability": "view",
      "type": "function"
    },
    {
      "inputs": [
        {
          "internalType": "address",
          "name": "recipient",
          "type": "address"
        },
        {
          "internalType": "uint256",
          "name": "amount",
          "type": "uint256"
        }
      ],
      "name": "transfer",
      "outputs": [
        {
          "internalType": "bool",
          "name": "",
          "type": "bool"
        }
      ],
      "stateMutability": "nonpayable",
      "type": "function"
    },
    {
      "inputs": [
        {
          "internalType": "address",
          "name": "sender",
          "type": "address"
        },
        {
          "internalType": "address",
          "name": "recipient",
          "type": "address"
        },
        {
          "internalType": "uint256",
          "name": "amount",
          "type": "uint256"
        }
      ],
      "name": "transferFrom",
      "outputs": [
        {
          "internalType": "bool",
          "name": "",
          "type": "bool"
        }
      ],
      "stateMutability": "nonpayable",
      "type": "function"
    },
    {
      "inputs": [
        {
          "internalType": "address",
          "name": "newOwner",
          "type": "address"
        }
      ],
      "name": "transferOwnership",
      "outputs": [],
      "stateMutability": "nonpayable",
      "type": "function"
    }
  ],
  "bytecode": "0x60806040523480156200001157600080fd5b50604051620024d5380380620024d58339818101604052810190620000379190620003d5565b336000806101000a81548173ffffffffffffffffffffffffffffffffffffffff021916908373ffffffffffffffffffffffffffffffffffffffff160217905550620000893384620000b660201b60201c565b81600190816200009a9190620006b0565b508060029081620000ac9190620006b0565b50505050620008b2565b600073ffffffffffffffffffffffffffffffffffffffff168273ffffffffffffffffffffffffffffffffffffffff160362000128576040517f08c379a00000000000000000000000000000000000000000000000000000000081526004016200011f90620007f8565b60405180910390fd5b80600360008282546200013c919062000849565b9250508190555080600460008473ffffffffffffffffffffffffffffffffffffffff1673ffffffffffffffffffffffffffffffffffffffff168152602001908152602001600020600082825462000194919062000849565b925050819055508173ffffffffffffffffffffffffffffffffffffffff16600073ffffffffffffffffffffffffffffffffffffffff167fddf252ad1be2c89b69c2b068fc378daa952ba7f163c4a11628f55a4df523b3ef83604051620001fb919062000895565b60405180910390a35050565b6000604051905090565b600080fd5b600080fd5b6000819050919050565b62000230816200021b565b81146200023c57600080fd5b50565b600081519050620002508162000225565b92915050565b600080fd5b600080fd5b6000601f19601f8301169050919050565b7f4e487b7100000000000000000000000000000000000000000000000000000000600052604160045260246000fd5b620002ab8262000260565b810181811067ffffffffffffffff82111715620002cd57620002cc62000271565b5b80604052505050565b6000620002e262000207565b9050620002f08282620002a0565b919050565b600067ffffffffffffffff82111562000313576200031262000271565b5b6200031e8262000260565b9050602081019050919050565b60005b838110156200034b5780820151818401526020810190506200032e565b60008484015250505050565b60006200036e6200036884620002f5565b620002d6565b9050828152602081018484840111156200038d576200038c6200025b565b5b6200039a8482856200032b565b509392505050565b600082601f830112620003ba57620003b962000256565b5b8151620003cc84826020860162000357565b91505092915050565b600080600060608486031215620003f157620003f062000211565b5b600062000401868287016200023f565b935050602084015167ffffffffffffffff81111562000425576200042462000216565b5b6200043386828701620003a2565b925050604084015167ffffffffffffffff81111562000457576200045662000216565b5b6200046586828701620003a2565b9150509250925092565b600081519050919050565b7f4e487b7100000000000000000000000000000000000000000000000000000000600052602260045260246000fd5b60006002820490506001821680620004c257607f821691505b602082108103620004d857620004d76200047a565b5b50919050565b60008190508160005260206000209050919050565b60006020601f8301049050919050565b600082821b905092915050565b600060088302620005427fffffffffffffffffffffffffffffffffffffffffffffffffffffffffffffffff8262000503565b6200054e868362000503565b95508019841693508086168417925050509392505050565b6000819050919050565b6000620005916200058b62000585846200021b565b62000566565b6200021b565b9050919050565b6000819050919050565b620005ad8362000570565b620005c5620005bc8262000598565b84845462000510565b825550505050565b600090565b620005dc620005cd565b620005e9818484620005a2565b505050565b5b81811015620006115762000605600082620005d2565b600181019050620005ef565b5050565b601f82111562000660576200062a81620004de565b6200063584620004f3565b8101602085101562000645578190505b6200065d6200065485620004f3565b830182620005ee565b50505b505050565b600082821c905092915050565b6000620006856000198460080262000665565b1980831691505092915050565b6000620006a0838362000672565b9150826002028217905092915050565b620006bb826200046f565b67ffffffffffffffff811115620006d757620006d662000271565b5b620006e38254620004a9565b620006f082828562000615565b600060209050601f83116001811462000728576000841562000713578287015190505b6200071f858262000692565b8655506200078f565b601f1984166200073886620004de565b60005b8281101562000762578489015182556001820191506020850194506020810190506200073b565b868310156200078257848901516200077e601f89168262000672565b8355505b6001600288020188555050505b505050505050565b600082825260208201905092915050565b7f45524332303a206d696e7420746f20746865207a65726f206164647265737300600082015250565b6000620007e0601f8362000797565b9150620007ed82620007a8565b602082019050919050565b600060208201905081810360008301526200081381620007d1565b9050919050565b7f4e487b7100000000000000000000000000000000000000000000000000000000600052601160045260246000fd5b600062000856826200021b565b915062000863836200021b565b92508282019050808211156200087e576200087d6200081a565b5b92915050565b6200088f816200021b565b82525050565b6000602082019050620008ac600083018462000884565b92915050565b611c1380620008c26000396000f3fe608060405234801561001057600080fd5b50600436106100ea5760003560e01c806370a082311161008c578063a457c2d711610066578063a457c2d714610275578063a9059cbb146102a5578063dd62ed3e146102d5578063f2fde38b14610305576100ea565b806370a08231146102095780638da5cb5b1461023957806395d89b4114610257576100ea565b806323b872dd116100c857806323b872dd1461015b578063313ce5671461018b57806339509351146101a957806342966c68146101d9576100ea565b806306fdde03146100ef578063095ea7b31461010d57806318160ddd1461013d575b600080fd5b6100f7610321565b604051610104919061121d565b60405180910390f35b610127600480360381019061012291906112d8565b6103af565b6040516101349190611333565b60405180910390f35b6101456103c6565b604051610152919061135d565b60405180910390f35b61017560048036038101906101709190611378565b6103d0565b6040516101829190611333565b60405180910390f35b61019361047a565b6040516101a091906113e7565b60405180910390f35b6101c360048036038101906101be91906112d8565b61047f565b6040516101d09190611333565b60405180910390f35b6101f360048036038101906101ee9190611402565b61066d565b6040516102009190611333565b60405180910390f35b610223600480360381019061021e919061142f565b610682565b604051610230919061135d565b60405180910390f35b6102416106cb565b60405161024e919061146b565b60405180910390f35b61025f6106ef565b60405161026c919061121d565b60405180910390f35b61028f600480360381019061028a91906112d8565b61077d565b60405161029c9190611333565b60405180910390f35b6102bf60048036038101906102ba91906112d8565b61096b565b6040516102cc9190611333565b60405180910390f35b6102ef60048036038101906102ea9190611486565b610982565b6040516102fc919061135d565b60405180910390f35b61031f600480360381019061031a919061142f565b610a09565b005b6001805461032e906114f5565b80601f016020809104026020016040519081016040528092919081815260200182805461035a906114f5565b80156103a75780601f1061037c576101008083540402835291602001916103a7565b820191906000526020600020905b81548152906001019060200180831161038a57829003601f168201915b505050505081565b60006103bc338484610bc3565b6001905092915050565b6000600354905090565b60006103dd848484610d8c565b61046f843384600560008973ffffffffffffffffffffffffffffffffffffffff1673ffffffffffffffffffffffffffffffffffffffff16815260200190815260200160002060003373ffffffffffffffffffffffffffffffffffffffff1673ffffffffffffffffffffffffffffffffffffffff1681526020019081526020016000205461046a9190611555565b610bc3565b600190509392505050565b601281565b60008073ffffffffffffffffffffffffffffffffffffffff168373ffffffffffffffffffffffffffffffffffffffff16036104ef576040517f08c379a00000000000000000000000000000000000000000000000000000000081526004016104e6906115fb565b60405180910390fd5b81600560003373ffffffffffffffffffffffffffffffffffffffff1673ffffffffffffffffffffffffffffffffffffffff16815260200190815260200160002060008573ffffffffffffffffffffffffffffffffffffffff1673ffffffffffffffffffffffffffffffffffffffff168152602001908152602001600020600082825461057b919061161b565b925050819055508273ffffffffffffffffffffffffffffffffffffffff163373ffffffffffffffffffffffffffffffffffffffff167f8c5be1e5ebec7d5bd14f71427d1e84f3dd0314c0f7b2291e5b200ac8c7c3b925600560003373ffffffffffffffffffffffffffffffffffffffff1673ffffffffffffffffffffffffffffffffffffffff16815260200190815260200160002060008773ffffffffffffffffffffffffffffffffffffffff1673ffffffffffffffffffffffffffffffffffffffff1681526020019081526020016000205460405161065b919061135d565b60405180910390a36001905092915050565b60006106793383610fc3565b60019050919050565b6000600460008373ffffffffffffffffffffffffffffffffffffffff1673ffffffffffffffffffffffffffffffffffffffff168152602001908152602001600020549050919050565b60008054906101000a900473ffffffffffffffffffffffffffffffffffffffff1681565b600280546106fc906114f5565b80601f0160208091040260200160405190810160405280929190818152602001828054610728906114f5565b80156107755780601f1061074a57610100808354040283529160200191610775565b820191906000526020600020905b81548152906001019060200180831161075857829003601f168201915b505050505081565b60008073ffffffffffffffffffffffffffffffffffffffff168373ffffffffffffffffffffffffffffffffffffffff16036107ed576040517f08c379a00000000000000000000000000000000000000000000000000000000081526004016107e4906116c1565b60405180910390fd5b81600560003373ffffffffffffffffffffffffffffffffffffffff1673ffffffffffffffffffffffffffffffffffffffff16815260200190815260200160002060008573ffffffffffffffffffffffffffffffffffffffff1673ffffffffffffffffffffffffffffffffffffffff16815260200190815260200160002060008282546108799190611555565b925050819055508273ffffffffffffffffffffffffffffffffffffffff163373ffffffffffffffffffffffffffffffffffffffff167f8c5be1e5ebec7d5bd14f71427d1e84f3dd0314c0f7b2291e5b200ac8c7c3b925600560003373ffffffffffffffffffffffffffffffffffffffff1673ffffffffffffffffffffffffffffffffffffffff16815260200190815260200160002060008773ffffffffffffffffffffffffffffffffffffffff1673ffffffffffffffffffffffffffffffffffffffff16815260200190815260200160002054604051610959919061135d565b60405180910390a36001905092915050565b6000610978338484610d8c565b6001905092915050565b6000600560008473ffffffffffffffffffffffffffffffffffffffff1673ffffffffffffffffffffffffffffffffffffffff16815260200190815260200160002060008373ffffffffffffffffffffffffffffffffffffffff1673ffffffffffffffffffffffffffffffffffffffff16815260200190815260200160002054905092915050565b60008054906101000a900473ffffffffffffffffffffffffffffffffffffffff1673ffffffffffffffffffffffffffffffffffffffff163373ffffffffffffffffffffffffffffffffffffffff1614610a97576040517f08c379a0000000000000000000000000000000000000000000000000000000008152600401610a8e9061172d565b60405180910390fd5b600073ffffffffffffffffffffffffffffffffffffffff168173ffffffffffffffffffffffffffffffffffffffff1603610b06576040517f08c379a0000000000000000000000000000000000000000000000000000000008152600401610afd906117bf565b60405180910390fd5b8073ffffffffffffffffffffffffffffffffffffffff1660008054906101000a900473ffffffffffffffffffffffffffffffffffffffff1673ffffffffffffffffffffffffffffffffffffffff167f8be0079c531659141344cd1fd0a4f28419497f9722a3daafe3b4186f6b6457e060405160405180910390a3806000806101000a81548173ffffffffffffffffffffffffffffffffffffffff021916908373ffffffffffffffffffffffffffffffffffffffff16021790555050565b600073ffffffffffffffffffffffffffffffffffffffff168373ffffffffffffffffffffffffffffffffffffffff1603610c32576040517f08c379a0000000000000000000000000000000000000000000000000000000008152600401610c2990611851565b60405180910390fd5b600073ffffffffffffffffffffffffffffffffffffffff168273ffffffffffffffffffffffffffffffffffffffff1603610ca1576040517f08c379a0000000000000000000000000000000000000000000000000000000008152600401610c98906118e3565b60405180910390fd5b80600560008573ffffffffffffffffffffffffffffffffffffffff1673ffffffffffffffffffffffffffffffffffffffff16815260200190815260200160002060008473ffffffffffffffffffffffffffffffffffffffff1673ffffffffffffffffffffffffffffffffffffffff168152602001908152602001600020819055508173ffffffffffffffffffffffffffffffffffffffff168373ffffffffffffffffffffffffffffffffffffffff167f8c5be1e5ebec7d5bd14f71427d1e84f3dd0314c0f7b2291e5b200ac8c7c3b92583604051610d7f919061135d565b60405180910390a3505050565b600073ffffffffffffffffffffffffffffffffffffffff168373ffffffffffffffffffffffffffffffffffffffff1603610dfb576040517f08c379a0000000000000000000000000000000000000000000000000000000008152600401610df290611975565b60405180910390fd5b600073ffffffffffffffffffffffffffffffffffffffff168273ffffffffffffffffffffffffffffffffffffffff1603610e6a576040517f08c379a0000000000000000000000000000000000000000000000000000000008152600401610e6190611a07565b60405180910390fd5b60008111610ead576040517f08c379a0000000000000000000000000000000000000000000000000000000008152600401610ea490611a99565b60405180910390fd5b80600460008573ffffffffffffffffffffffffffffffffffffffff1673ffffffffffffffffffffffffffffffffffffffff1681526020019081526020016000206000828254610efc9190611555565b9250508190555080600460008473ffffffffffffffffffffffffffffffffffffffff1673ffffffffffffffffffffffffffffffffffffffff1681526020019081526020016000206000828254610f52919061161b565b925050819055508173ffffffffffffffffffffffffffffffffffffffff168373ffffffffffffffffffffffffffffffffffffffff167fddf252ad1be2c89b69c2b068fc378daa952ba7f163c4a11628f55a4df523b3ef83604051610fb6919061135d565b60405180910390a3505050565b600073ffffffffffffffffffffffffffffffffffffffff168273ffffffffffffffffffffffffffffffffffffffff1603611032576040517f08c379a000000000000000000000000000000000000000000000000000000000815260040161102990611b2b565b60405180910390fd5b600460008373ffffffffffffffffffffffffffffffffffffffff1673ffffffffffffffffffffffffffffffffffffffff168152602001908152602001600020548111156110b4576040517f08c379a00000000000000000000000000000000000000000000000000000000081526004016110ab90611bbd565b60405180910390fd5b80600360008282546110c69190611555565b9250508190555080600460008473ffffffffffffffffffffffffffffffffffffffff1673ffffffffffffffffffffffffffffffffffffffff168152602001908152602001600020600082825461111c9190611555565b92505081905550600073ffffffffffffffffffffffffffffffffffffffff168273ffffffffffffffffffffffffffffffffffffffff167fddf252ad1be2c89b69c2b068fc378daa952ba7f163c4a11628f55a4df523b3ef83604051611181919061135d565b60405180910390a35050565b600081519050919050565b600082825260208201905092915050565b60005b838110156111c75780820151818401526020810190506111ac565b60008484015250505050565b6000601f19601f8301169050919050565b60006111ef8261118d565b6111f98185611198565b93506112098185602086016111a9565b611212816111d3565b840191505092915050565b6000602082019050818103600083015261123781846111e4565b905092915050565b600080fd5b600073ffffffffffffffffffffffffffffffffffffffff82169050919050565b600061126f82611244565b9050919050565b61127f81611264565b811461128a57600080fd5b50565b60008135905061129c81611276565b92915050565b6000819050919050565b6112b5816112a2565b81146112c057600080fd5b50565b6000813590506112d2816112ac565b92915050565b600080604083850312156112ef576112ee61123f565b5b60006112fd8582860161128d565b925050602061130e858286016112c3565b9150509250929050565b60008115159050919050565b61132d81611318565b82525050565b60006020820190506113486000830184611324565b92915050565b611357816112a2565b82525050565b6000602082019050611372600083018461134e565b92915050565b6000806000606084860312156113915761139061123f565b5b600061139f8682870161128d565b93505060206113b08682870161128d565b92505060406113c1868287016112c3565b9150509250925092565b600060ff82169050919050565b6113e1816113cb565b82525050565b60006020820190506113fc60008301846113d8565b92915050565b6000602082840312156114185761141761123f565b5b6000611426848285016112c3565b91505092915050565b6000602082840312156114455761144461123f565b5b60006114538482850161128d565b91505092915050565b61146581611264565b82525050565b6000602082019050611480600083018461145c565b92915050565b6000806040838503121561149d5761149c61123f565b5b60006114ab8582860161128d565b92505060206114bc8582860161128d565b9150509250929050565b7f4e487b7100000000000000000000000000000000000000000000000000000000600052602260045260246000fd5b6000600282049050600182168061150d57607f821691505b6020821081036115205761151f6114c6565b5b50919050565b7f4e487b7100000000000000000000000000000000000000000000000000000000600052601160045260246000fd5b6000611560826112a2565b915061156b836112a2565b925082820390508181111561158357611582611526565b5b92915050565b7f45524332303a20696e63726561736520616c6c6f77616e636520746f2074686560008201527f207a65726f206164647265737300000000000000000000000000000000000000602082015250565b60006115e5602d83611198565b91506115f082611589565b604082019050919050565b60006020820190508181036000830152611614816115d8565b9050919050565b6000611626826112a2565b9150611631836112a2565b925082820190508082111561164957611648611526565b5b92915050565b7f45524332303a20646563726561736520616c6c6f77616e636520746f2074686560008201527f207a65726f206164647265737300000000000000000000000000000000000000602082015250565b60006116ab602d83611198565b91506116b68261164f565b604082019050919050565b600060208201905081810360008301526116da8161169e565b9050919050565b7f4f776e61626c653a2063616c6c6572206973206e6f7420746865206f776e6572600082015250565b6000611717602083611198565b9150611722826116e1565b602082019050919050565b600060208201905081810360008301526117468161170a565b9050919050565b7f4f776e61626c653a206e6577206f776e657220697320746865207a65726f206160008201527f6464726573730000000000000000000000000000000000000000000000000000602082015250565b60006117a9602683611198565b91506117b48261174d565b604082019050919050565b600060208201905081810360008301526117d88161179c565b9050919050565b7f45524332303a20617070726f76652066726f6d20746865207a65726f2061646460008201527f7265737300000000000000000000000000000000000000000000000000000000602082015250565b600061183b602483611198565b9150611846826117df565b604082019050919050565b6000602082019050818103600083015261186a8161182e565b9050919050565b7f45524332303a20617070726f766520746f20746865207a65726f20616464726560008201527f7373000000000000000000000000000000000000000000000000000000000000602082015250565b60006118cd602283611198565b91506118d882611871565b604082019050919050565b600060208201905081810360008301526118fc816118c0565b9050919050565b7f45524332303a207472616e736665722066726f6d20746865207a65726f20616460008201527f6472657373000000000000000000000000000000000000000000000000000000602082015250565b600061195f602583611198565b915061196a82611903565b604082019050919050565b6000602082019050818103600083015261198e81611952565b9050919050565b7f45524332303a207472616e7366657220746f20746865207a65726f206164647260008201527f6573730000000000000000000000000000000000000000000000000000000000602082015250565b60006119f1602383611198565b91506119fc82611995565b604082019050919050565b60006020820190508181036000830152611a20816119e4565b9050919050565b7f45524332303a207472616e7366657220616d6f756e74206d757374206265206760008201527f726561746572207468616e207a65726f00000000000000000000000000000000602082015250565b6000611a83603083611198565b9150611a8e82611a27565b604082019050919050565b60006020820190508181036000830152611ab281611a76565b9050919050565b7f45524332303a206275726e2066726f6d20746865207a65726f2061646472657360008201527f7300000000000000000000000000000000000000000000000000000000000000602082015250565b6000611b15602183611198565b9150611b2082611ab9565b604082019050919050565b60006020820190508181036000830152611b4481611b08565b9050919050565b7f45524332303a206275726e20616d6f756e7420657863656564732062616c616e60008201527f6365000000000000000000000000000000000000000000000000000000000000602082015250565b6000611ba7602283611198565b9150611bb282611b4b565b604082019050919050565b60006020820190508181036000830152611bd681611b9a565b905091905056fea26469706673582212204667c549831d7aea7983da478683292bff235069e8882ef68bfd9220ba05119f64736f6c63430008180033",
  "linkReferences": {},
  "deployedLinkReferences": {}
}